:060000008031AE29000072
:0800080083018031200077081C
:10001000A0007808A1007908A2007A08A3008B1E2E
:1000200013280B192328850191308400801E1A287B
:10003000911A25282008F7002108F8002208F90065
:100040002308FA00090080319F2880314A28911E38
:10005000272823001D082000BA00013023001D05B9
:10006000F9001908F8002000BA1C392823001D12D5
:100070001D16200008001E30460784002030850031
:100080000318850A61088000C60A4608073C031C5D
:10009000C601080027207908E0007808DF005F0823
:1000A000C706480803196128013A03196D28033A65
:1000B00003197828013A03197E28FC3A0319862887
:1000C0008D283C08C6006008CF005F08CE005F089E
:1000D000C7004E08E1003B2091286008CD005F0872
:1000E000CC004C08E1003B2023009D11200091280A
:1000F0005F08CB004B08E1003B2091285F08CA0055
:100100000330C9004A08E1003B2091284608BC00A2
:1001100023009D152000C8019C285F08E1003B20BA
:10012000C9034808033C03189B28C908031D9B28E2
:10013000FF30C8009C28C80A911280311A28A70AEB
:100140008430950022008E100E108C1220002E0894
:100150000319B128013A0319BB28033A0319C5282A
:10016000CE2821008D0120002F0822008D008E1442
:100170002000AE0ACE2821008D0120003008220088
:100180008D000E142000AE0ACE2821008D01200023
:10019000310822008D008C162000AE010B11803139
:1001A0001A28911ED5282720D12823009D159D1798
:1001B0001D169E162000BB01BC01BD012100911639
:1001C000C0308B048D1222008D12803120001C2B38
:1001D000F801F901F701FA015D08031DF2285C0836
:1001E00003190C291030DE000310DA0DDB0DF70DBA
:1001F000FA0D5D087A02031DFF285C087702031CD4
:1002000008295C08F702031CFA035D08FA020314CC
:10021000F80DF90DDE0BF42808001030DE00F701B0
:10022000FA01DB0CDA0C031C1B295C08F707031826
:10023000FA0A5D08FA07FA0CF70CF90CF80CDE0B59
:10024000112908005508F63E031845290A3E46299B
:10025000FA30B20045298230B2004529B930B200E7
:100260004529AB30B2004529C330B20045296B3077
:10027000B20045297B30B2004529A230B2004529A1
:10028000FB30B2004529EB30B20008000A148A1096
:100290000A11820728292B292E29312934293729A7
:1002A0003A293D29402943295408D6005308D5004E
:1002B0005608DB005508DA00DD016430DC00E82078
:1002C0007908B5007808B4003508DB003408DA0096
:1002D000DD016430DC000D217908FA007808550250
:1002E000D8007908563BD900DB005808DA00DD0158
:1002F0000A30DC00E8207908B7007808B600350835
:10030000DB003408DA00DD016430DC000D217908FF
:10031000FA0078085502D8007908563BD90037080A
:10032000DB003608DA00DD010A30DC000D21780838
:100330005802B8007908593BB9003408D500222189
:100340003208AF003608D50022213208B000380844
:10035000D50022213208B1008031342B5730F7000C
:1003600020308400003085008001840AF70BB42916
:10037000F801F901FA01FB01FC01FD01FE01503019
:10038000F700A0308400003085008001840AF70B5C
:10039000C5295030F70020308400013085008001ED
:1003A000840AF70BCF2985015030F700A030840074
:1003B000013085008001840AF70BDA29850150306D
:1003C000F70020308400023085008001840AF70B9A
:1003D000E52985015030F700A03084000230850007
:1003E0008001840AF70BF02985015030F700203096
:1003F0008400033085008001840AF70BFB29850106
:100400005030F700A0308400033085008001840A5A
:10041000F70B062A85015030F700203084000430A5
:1004200085008001840AF70B112A85015030F700FE
:10043000A0308400043085008001840AF70B1C2A58
:1004400085015030F70020308400053085008001A0
:10045000840AF70B272A85015030F700A03084006A
:10046000053085008001840AF70B322A850150305F
:10047000F70020308400063085008001840AF70BE5
:100480003D2A85015030F700A030840006308500F9
:100490008001840AF70B482A85015030F70020308C
:1004A0008400073085008001840AF70B532A8501F8
:1004B0005030F700A0308400073085008001840AA6
:1004C000F70B5E2A85015030F70020308400083099
:1004D00085008001840AF70B692A85015030F700F6
:1004E000A0308400083085008001840AF70B742A4C
:1004F00085015030F70020308400093085008001EC
:10050000840AF70B7F2A85015030F700A030840061
:10051000093085008001840AF70B8A2A8501503052
:10052000F700203084000A3085008001840AF70B30
:10053000952A85015030F700A03084000A308500EC
:100540008001840AF70BA02A85015030F700203083
:1005500084000B3085008001840AF70BAB2A8501EB
:100560005030F700A03084000B3085008001840AF1
:10057000F70BB62A85015030F700203084000C308C
:1005800085008001840AF70BC12A85012030F7001D
:10059000A03084000C3085008001840AF70BCC2A3F
:1005A0008501A0017A302100990022008C112000E1
:1005B000BA0123009F15A0309B0001309C00A6309B
:1005C0009E0090309D0022008C110E172000C80163
:1005D00023008C018D018E0122009201910178305F
:1005E000210099001508C039033895001D10F0301E
:1005F000250093059A0526009305220098013F30B7
:1006000092009101940093019F009E019B009A012A
:100610008B160B138B138B1B0A2B023021008C00C3
:1006200000308D0080308E009015C03024008E0088
:10063000210095132000D128C0308B046330D000F6
:1006400064002708013C0318282B6400A701A80AAE
:100650002808093C0318352BA801A90A4408D10031
:10066000D4015108D3005429BC012908043C0318C3
:100670003B2BA901AA0A2A08013C0318412BAA0115
:10068000AB0A2B08043C0318472BAB01AC0A2C081F
:10069000013C031CAC012D08093C031CAD01202BBF
:0206A0006300F5
:020000040001F9
:04000E00440EFF1E7F
:00000001FF
;PIC16F1788
;CRC=7FBA  CREATED="17-Mar-20 14:50"
