:0600000080315B2A0000C4
:0800080083018031200077081C
:10001000A0007808A1007908A2007A08A3008B1E2E
:1000200013280B192328850191308400801E1A287B
:10003000911A25282008F7002108F8002208F90065
:100040002308FA00090080319F2880314A28911E38
:10005000272823001D082000BB00013023001D05B8
:10006000F9001908F8002000BB1C392823001D12D4
:100070001D16200008001F3047078400203085002F
:100080000318850A66088000C70A4708073C031C56
:10009000C701080027207908E5007808E400640813
:1000A000C806490803196128013A03196D28033A63
:1000B00003197828013A03197E28FC3A0319862887
:1000C0008D283D08C7006508D0006408CF0064088B
:1000D000C8004F08E6003B2091286508CE00640860
:1000E000CD004D08E6003B2023009D112000912803
:1000F0006408CC004C08E6003B2091286408CB0043
:100100000330CA004B08E6003B2091284708BD0099
:1001100023009D152000C9019C286408E6003B20AF
:10012000CA034908033C03189B28CA08031D9B28DF
:10013000FF30C9009C28C90A911280311A28A80AE8
:100140008430950022008E100E108C1220002F0893
:100150000319B128013A0319BB28033A0319C5282A
:10016000CE2821008D012000300822008D008E1441
:100170002000AF0ACE2821008D0120003108220086
:100180008D000E142000AF0ACE2821008D01200022
:10019000320822008D008C162000AF010B11803137
:1001A0001A28911ED5282720D12823009D159D1798
:1001B0001D169E1620000800D120BC01BD01BE0105
:1001C00021009116C0308B048D1222008D128031D7
:1001D0002000C92BF801F901F701FA016108031D9C
:1001E000F428600803190E291030E2000310DE0D18
:1001F000DF0DF70DFA0D61087A02031D0129600871
:100200007702031C0A296008F702031CFA0361083D
:10021000FA020314F80DF90DE20BF628080010306D
:10022000E200F701FA01DF0CDE0C031C1D29600857
:10023000F7070318FA0A6108FA07FA0CF70CF90C29
:10024000F80CE20B132908005908F63E0318472959
:100250000A3E4829FA30B30047298230B3004729C3
:10026000B930B3004729AB30B3004729C330B300DE
:1002700047296B30B30047297B30B3004729A230B0
:10028000B3004729FB30B3004729EB30B300080027
:100290000A148A100A1182072A292D2930293329A4
:1002A000362939293C293F29422945295808DA00AD
:1002B0005708D9005A08DF005908DE00E101643010
:1002C000E000EA207908B6007808B5003608DF00BB
:1002D0003508DE00E1016430E0000F217908FA0002
:1002E00078085902DC0079085A3BDD00DF005C0821
:1002F000DE00E1010A30E000EA207908B800780861
:10030000B7003608DF003508DE00E1016430E000A8
:100310000F217908FA0078085902DC0079085A3B65
:10032000DD003808DF003708DE00E1010A30E000B8
:100330000F2178085C02B90079085D3BBA003508E6
:10034000D90024213308B0003708D900242133080C
:10035000B1003908D90024213308B2008031E72BDD
:10036000203085004030840000080319C52905307D
:10037000F800F701F70BBA29F80BB9292E30F7006E
:10038000F70BC029C329800BB72908003B1B042A9F
:1003900022008C150E130830F800CE290000F81743
:1003A000F129F8132000E20C220003180E17031C99
:1003B0000E1320000E1FE0298E1BE1293B17042A93
:1003C00000007817F62978130E1FEA298E1BEB29F7
:1003D0003B17042A0000F80BD329EE290000220065
:1003E0000E1702308400840BF32920008030840033
:1003F000840BF829FB290000F81F002A2200D129CC
:10040000781BE32922008C11200008005E102300D5
:100410009D131D129E122000DB015B08043C031C8F
:10042000542A3B130130E3002930E200C62157086B
:10043000E0000130E100E3005708E200C621E301DB
:100440004108E200C621E3015808E200C621DC01B0
:100450005708293A5806DD0058085C020318472A55
:10046000590884005A0885000008DD065A08FA0079
:10047000590884005A0885000008E000E30160087C
:10048000E200C621D90A0319DA0ADC0A2C2AE301A0
:100490005D08E200C6213B1B4F2A5E14542A293016
:1004A000E000B021DB0A0D2AD12000305E180130B7
:1004B000F8008031F82B5730F700203084000030EE
:1004C00085008001840AF70B612AF801F901FA011D
:1004D000FB01FC01FD01FE015030F700A03084005B
:1004E000003085008001840AF70B722A5030F70033
:1004F00020308400013085008001840AF70B7C2ABB
:1005000085015030F700A030840001308500800163
:10051000840AF70B872A85015030F70020308400C9
:10052000023085008001840AF70B922A8501503041
:10053000F700A0308400023085008001840AF70BA8
:100540009D2A85015030F70020308400033085005B
:100550008001840AF70BA82A85015030F700A030EB
:100560008400033085008001840AF70BB32A8501DB
:100570005030F70020308400043085008001840A68
:10058000F70BBE2A85015030F700A03084000430FC
:1005900085008001840AF70BC92A85015030F700D5
:1005A00020308400053085008001840AF70BD42AAE
:1005B00085015030F700A0308400053085008001AF
:1005C000840AF70BDF2A85015030F70020308400C1
:1005D000063085008001840AF70BEA2A8501503035
:1005E000F700A0308400063085008001840AF70BF4
:1005F000F52A85015030F70020308400073085004F
:100600008001840AF70B002B85015030F700A030E1
:100610008400073085008001840AF70B0B2B8501CD
:100620005030F70020308400083085008001840AB3
:10063000F70B162B85015030F700A03084000830EE
:1006400085008001840AF70B212B85015030F700CB
:1006500020308400093085008001840AF70B2C2BA0
:1006600085015030F700A0308400093085008001FA
:10067000840AF70B372B85015030F70020308400B7
:100680000A3085008001840AF70B422B8501503027
:10069000F700A03084000A3085008001840AF70B3F
:1006A0004D2B85015030F700203084000B30850041
:1006B0008001840AF70B582B85015030F700A030D9
:1006C00084000B3085008001840AF70B632B8501C1
:1006D0005030F700203084000C3085008001840AFF
:1006E000F70B6E2B85012030F700A03084000C3012
:1006F00085008001840AF70B792B8501A0017A30EF
:100700002100990022008C112000BB0123009F15BD
:10071000A0309B0001309C00A6309E0090309D00D0
:1007200022008C110E172000C90123008C018D01BD
:100730008E01220092019101783021009900150864
:10074000C039033895001D10F030250093059A0537
:1007500026009305220098013F30920091019400F9
:1007600093019F009E019B009A018B160B138B1324
:100770008B1BB72B023021008C0000308D008030A5
:100780008E009015C03024008E00210095132000AB
:10079000DC28C0308B046330D10064002808013CA1
:1007A0000318D52B6400A801A90A2908093C0318DD
:1007B000FA2BA901AA0A4508D2004308D40044082C
:1007C000D5004508D600D8015208D7005629BD01EA
:1007D000530852020319F82B0530E000B0211730FE
:1007E000D7000330D8002030DA003430D900062A90
:1007F0005208D3002A08043C0318002CAA01AB0AB3
:100800002B08013C0318062CAB01AC0A2C08043C55
:1008100003180C2CAC01AD0A2D08013C031CAD01E2
:0C0820002E08093C031CAE01CD2B630028
:020000040001F9
:04000E00440EFF1E7F
:00000001FF
;PIC16F1788
;CRC=7ED6  CREATED="18-Mar-20 09:25"
